:100000009AC00000B3C00000B1C00000AFC0000043
:10001000ADC00000ABC00000A9C00000A7C0000038
:10002000A5C00000A3C00000A1C00000CDC3000017
:100030009DC000009BC0000099C0000097C0000058
:1000400095C0000093C0000091C000008FC0000068
:100050008DC000008BC0000089C00000DDC0000022
:1000600085C0000083C0000081C000007FC0000088
:100070007DC000007BC0000079C0000077C0000098
:1000800075C0000073C0000071C000006FC00000A8
:100090006DC000006BC0000005010904A101090149
:1000A000A10005010930093109330934159C256483
:1000B000750895048182C0050919012920150025BC
:1000C00001750195208102C0120110010000000895
:1000D000EB0343200000010200010902220001019C
:1000E00000C064090400000103000000092111019F
:1000F00000012230000705810308000A04030904F7
:100100001003410072006400750069006E006F000A
:1001100000002203410072006400750069006E0057
:100120006F0020004A006F007900730074006900BE
:1001300063006B00000011241FBECFEFD2E0DEBFD2
:10014000CDBF11E0A0E0B1E0E8E9FFE002C005901A
:100150000D92AE30B107D9F711E0AEE0B1E001C0C9
:100160001D92A03BB107E1F7CDD014C749CF089548
:10017000089580910B0190910C01009729F001974F
:1001800090930C0180930B0108950F931F93CF93CD
:10019000DF93E8018FB7F8949091A4018FBF983056
:1001A00040F1AEE0B1E060E271E0E091A201F091D7
:1001B000A3014191F093A301E093A201E05AF14021
:1001C00021F47093A3016093A2019FB7F8948091EA
:1001D000A40181508093A4019FBF4D9381E0A6317B
:1001E000B80719F75D9880ED97E090931701809319
:1001F0001601D901EEE0F1E088E001900D92815006
:10020000E1F788E090E09983888380E0DF91CF91E7
:100210001F910F91089508951F920F920FB60F929C
:1002200011242F938F939F93EF93FF932091CE00F0
:100230008EB3843029F58FB7F8949091A4018FBFC5
:100240009038F1F0E091A001F091A1012083E091BC
:10025000A001F091A101CF0101969093A10180939B
:10026000A001805A914021F480E291E09283818341
:100270009FB7F8948091A4018F5F8093A4019FBFE2
:10028000FF91EF919F918F912F910F900FBE0F9043
:100290001F90189580E091E03AC580E091E006D586
:1002A000E2EEF0E080818460808308950F931F93D5
:1002B00084B7877F84BF28E10FB6F894209360004D
:1002C000109260000FBE80E190E09093CD0080938B
:1002D000CC0086E08093CA0082E08093C80009ECDD
:1002E00010E0F8012083539A5A9A8AB180638AB940
:1002F0008BB180638BB95DD288E9F80180831F914F
:100300000F910895D3DF2FB7F89480E291E0909396
:10031000A1018093A0019093A3018093A2012FBF1C
:10032000789480E091E009D4F6D380911601909101
:100330001701892BB1F38091160190911701019754
:1003400090931701809316018091160190911701E7
:10035000892B39F75D9AE5CFDA019330B1F094300B
:1003600028F4913041F0923079F50AC0913211F1C0
:10037000923251F524C0E8ECF0E022E130E028C0F0
:10038000EAEDF0E022E230E023C0813049F0813034
:1003900018F08230C9F40AC0ECEFF0E0849103C099
:1003A000E0E0F1E08491282F30E012C0E2E1F1E0DA
:1003B0008491F9CFECEEF0E029E030E009C0E8E903
:1003C000F0E020E330E004C0E0E0F0E020E030E0E6
:1003D000ED93FC93C901089528E030E040E003C0AC
:1003E0004F5F220F331F28173907D0F3842F8295D0
:1003F000807F08958093E9008091EB008160809375
:10040000EB001092ED006093EC004093ED008091C2
:10041000EE00881F8827881F08951092F40090E04E
:100420009093E9001092F0001092E8001092ED0015
:100430008091EB008E7F8093EB009F5F953081F77A
:1004400008958091A80188238CF403C08EB388237B
:10045000B1F08091E80082FFF9CF8091E8008B77BE
:100460008093E80008958EB3882349F08091E800D6
:1004700080FFF9CF8091E8008E778093E80008959F
:1004800094E68091EC0080FF05C08091E80080FF39
:1004900005C023C08091E80082FD1FC08EB3882371
:1004A00011F482E008958EB3853011F483E008954D
:1004B0008091EB0085FF02C081E008958091E1000A
:1004C00082FFDFCF8091E1008B7F8093E100992351
:1004D00011F484E008959150D4CF80E00895DF9224
:1004E000EF92FF920F931F93CF93DF93182F092F53
:1004F000EB017A01C5DFD82E882319F5812F902FC3
:100500009C0189011CC08091E80085FD12C080918A
:10051000E8008E778093E800E114F10431F0F701F0
:100520000995813011F485E00DC0AADF882339F0E8
:1005300009C0F80181918F018093F10021972097E4
:1005400011F78D2DDF91CF911F910F91FF90EF90BB
:10055000DF9008959C014091AE015091AF01461784
:10056000570718F4F90120E038C06115710511F042
:10057000AB01F8CF8091E8008E778093E80040E0EF
:1005800050E0F0CF8091E80083FF02C081E0089541
:100590008091E80082FD2DC08EB3882381F18EB357
:1005A000853079F18091E80080FF17C09091F200CA
:1005B00006C081918093F100415050409F5F4115EA
:1005C000510511F09830A8F320E0983009F421E0AB
:1005D0008091E8008E778093E8004115510591F6EF
:1005E000222381F606C08EB3882349F08EB385306E
:1005F00041F08091E80082FFF6CF80E0089582E02C
:10060000089583E008959C014091AE015091AF019F
:100610004617570710F490E03BC06115710511F0C3
:10062000AB01F9CF8091E8008E778093E80040E03D
:1006300050E0F1CF8091E80083FF02C081E008958F
:100640008091E80082FD30C08EB3882399F18EB38B
:10065000853091F18091E80080FF1AC08091F2000E
:1006600009C0F9012F5F3F4FE491E093F100415041
:1006700050408F5F4115510511F0883090F390E0A4
:10068000883009F491E08091E8008E778093E8004B
:100690004115510579F6992369F606C08EB3882372
:1006A00049F08EB3853041F08091E80082FFF6CFAB
:1006B00080E0089582E0089583E008959C0161152B
:1006C000710529F48091E8008B778093E800F901A7
:1006D00020C08091E80083FF02C081E008958EB3BE
:1006E000882339F18EB3853031F18091E80082FFA3
:1006F000F0CF06C08091F10081936150704021F0ED
:100700008091F2008823B1F78091E8008B77809385
:10071000E80061157105E9F606C08EB3882349F03B
:100720008EB3853041F08091E80080FFF6CF80E005
:10073000089582E0089583E0089540D042D01EBA23
:100740001092A6011092A50184E089BD89B582604E
:1007500089BD09B400FEFDCF8091D800982F9F7706
:100760009093D80080688093D800809163008E7F3A
:10077000809363008091D8008F7D8093D800809112
:10078000E0008E7F8093E0008091E1008E7F809377
:10079000E1008091E20081608093E2008091E100BD
:1007A000877F8093E1008091E20088608093E2007F
:1007B0000895C3DF81E08093A70108951092E200BD
:1007C00008951092E10008951F920F920FB60F92B4
:1007D00011242F933F934F935F936F937F938F9346
:1007E0009F93AF93BF93EF93FF938091E10080FFBE
:1007F0001BC08091E20080FF17C08091E1008E7FD6
:100800008093E1008091E2008E7F8093E2008091EE
:10081000E20080618093E2008091D8008062809342
:10082000D80019BC1EBAA4DC8091E10084FF29C065
:100830008091E20084FF25C084E089BD89B5826093
:1008400089BD09B400FEFDCF8091D8008F7D8093D3
:10085000D8008091E1008F7E8093E1008091E200DA
:100860008F7E8093E2008091E20081608093E200BD
:100870008091A601882311F481E001C084E08EBB41
:1008800076DC8091E10083FF22C08091E20083FF4B
:100890001EC08091E100877F8093E10082E08EBBE3
:1008A0001092A6018091E1008E7F8093E1008091FB
:1008B000E2008E7F8093E2008091E200806180936D
:1008C000E200ABDD80E060E042E094DD23D1809186
:1008D000E10082FF0AC08091E20082FF06C08091A1
:1008E000E1008B7F8093E10044DCFF91EF91BF91A9
:1008F000AF919F918F917F916F915F914F913F91B8
:100900002F910F900FBE0F901F9018951F93DF939C
:10091000CF9300D0CDB7DEB7E8EAF1E08091F100E7
:10092000819381E0E03BF807C9F78091A80190919D
:10093000A901953009F471C0963040F49130A1F1CD
:10094000913070F0933009F0D0C02EC0983009F487
:10095000A2C0993009F4B1C0963009F0C6C07CC07D
:10096000803821F0823809F0C0C003C09091A50101
:1009700011C08091AC0187708093E9008091EB00F9
:1009800090E025E0969587952A95E1F7982F91704C
:100990001092E9008091E800877F8093E8009093AF
:1009A000F1001092F10082C0882319F0823009F022
:1009B0009CC08F71823009F099C08091AA01882370
:1009C00031F52091AC01277009F490C02093E90023
:1009D0008091EB0080FF8AC0933021F48091EB007E
:1009E000806213C08091EB0080618093EB0081E016
:1009F00090E002C0880F991F2A95E2F78093EA00E1
:100A00001092EA008091EB0088608093EB001092D6
:100A1000E9008091E800877F4CC0882309F065C019
:100A20001091AA018091E800877F8093E80009DD9A
:100A300004C08EB3882309F459C08091E80080FF78
:100A4000F8CF812F8F7711F492E001C093E09EBB25
:100A500080688093E3004AC08058823008F045C027
:100A60008091AA019091AB016091AC01AE014F5F02
:100A70005F4F72DCBC010097C9F18091E800877F6D
:100A80008093E80089819A81BEDD8091E8008B77B0
:100A90008093E8002BC0803841F58091E800877F83
:100AA0008093E8008091A6018093F1008091E80096
:100AB0008E778093E800C5DC19C08823B1F490914B
:100AC000AA01923098F48091E800877F8093E80033
:100AD0009093A601B6DC8091A601882311F483E0EF
:100AE00001C084E08EBBD9DB01C0D4DB8091E8007B
:100AF00083FF0AC08091EB0080628093EB008091BD
:100B0000E800877F8093E8000F900F90CF91DF91EE
:100B10001F91089508951F938EB3882361F010915B
:100B2000E9001092E9008091E80083FF01C0EEDE49
:100B300017701093E9001F9108954F925F926F9282
:100B40007F928F929F92AF92BF92CF92DF92EF925D
:100B5000FF920F931F93DF93CF9300D00F92CDB7E7
:100B6000DEB77C016DB67EB68EB3843009F085C0E9
:100B7000F70181818093E9008091E80085FF7DC0C5
:100B80005DB64EB647818DB79EB7841B91090FB6EF
:100B9000F8949EBF0FBE8DBF0DB71EB70F5F1F4FDE
:100BA00019821B821A82C02E912EC80160E070E06B
:100BB00050E0E9D1C701BE016F5F7F4F40E098016F
:100BC0008E010E5F1F4FE1DA882EF7018185928535
:100BD000892B19F4AA24BB240BC020E0F7018385DC
:100BE0009485892B09F021E081E02827A22EBB24DF
:100BF000F701058116810115110511F4DD2412C0DC
:100C00004A815B818C2D992DB801A7D1DD240097F5
:100C100011F0DD24D394F7014781C8016C2D792DA3
:100C200050E0A8D18A819B81892BF9F0882021F49A
:100C3000DD2011F4AB28C9F0F701818592859487F6
:100C4000838781818093E9008981882311F08093D3
:100C5000F1006A817B818C2D992D40E050E03FDCD2
:100C60008091E8008E778093E800852D942D9C017B
:100C70000FB6F8943EBF0FBE2DBF0FB6F8947EBEE0
:100C80000FBE6DBE0F900F900F90CF91DF911F910F
:100C90000F91FF90EF90DF90CF90BF90AF909F901B
:100CA0008F907F906F905F904F9008950F931F9358
:100CB000CF93DF93DC010896FC0185E0EF011992E8
:100CC0008A95E9F781E018968C93189784EF91E064
:100CD0001A969C938E93199712962D913C91139787
:100CE00011960C91119714968C91882311F410E0B1
:100CF00001C014E0C90170DB182B1260802F61EC79
:100D0000412F78DBDF91CF911F910F9108956F9262
:100D10007F928F929F92AF92BF92CF92DF92EF928B
:100D2000FF920F931F93DF93CF9300D00F92CDB715
:100D3000DEB74C016DB67EB68091E80083FFF6C049
:100D4000F401808190E02091AC013091AD01281731
:100D5000390709F0EBC08091A901833009F498C0EC
:100D6000843030F4813071F0823009F0DFC0C6C0C9
:100D70008A3009F4ACC08B3009F497C0893009F08F
:100D8000D5C04FC08091A801813A09F0CFC0ADB65F
:100D9000FEB68091E800877F8093E8001B821A826C
:100DA0008091AA011091AB018983F40147818DB72D
:100DB0009EB7841B91090FB6F8949EBF0FBE8DBFDE
:100DC000CDB6DEB60894C11CD11CEC2CBD2CC601DE
:100DD00060E070E050E0D7D01150C401BE016F5FF9
:100DE0007F4F412F96018E010E5F1F4FCED9F40128
:100DF000258136812115310529F04781C901B601C8
:100E000050E0B8D01092E9006A817B818E2D9B2D35
:100E1000A1DB8091E8008B778093E8002A2D3F2D9D
:100E200031C08091A801813209F080C0AEB68091B6
:100E3000E800877F8093E8000091AE011091AF0138
:100E4000C090AA01D090AB018DB79EB7801B910BCB
:100E50000FB6F8949EBF0FBE8DBFEDB6FEB60894D8
:100E6000E11CF11CC701B80129DCDA94C4016C2D26
:100E70004D2D9701D0D98091E8008E778093E800BE
:100E8000262D3A2D0FB6F8943EBF0FBE2DBF4EC093
:100E90008091A801813A09F049C08091E800877FDC
:100EA0008093E800F401808539C08091A8018132E7
:100EB00009F03CC08091E800877F8093E80090E0D3
:100EC0008091AA01811191E0F40190872EC0809158
:100ED000A801813259F58091E800877F8093E8006E
:100EE0008091AA019091AB01807036E0969587952C
:100EF0003A95E1F7F4019287818717C08091A801A4
:100F0000813AA1F48091E800877F8093E800F401A2
:100F10008185928596958795969587958093F10022
:100F20008091E8008E778093E8008BDA0FB6F89412
:100F30007EBE0FBE6DBE0F900F900F90CF91DF91D0
:100F40001F910F91FF90EF90DF90CF90BF90AF90E7
:100F50009F908F907F906F900895FB01DC0104C0FB
:100F60008D910190801921F441505040C8F7881BA1
:100F7000990B0895FB01DC0102C001900D924150D4
:100F80005040D8F70895DC0101C06D9341505040A6
:080F9000E0F70895F894FFCF8B
:0E0F9800000108000018010800000000000021
:00000001FF
